S01C0000666173745F70776D5F6C65645F636F6E74726F6C2E73726563B3
S11300000C9434000C943E000C943E000C943E007E
S11300100C943E000C943E000C943E000C943E0064
S11300200C943E000C943E000C943E000C943E0054
S11300300C943E000C943E000C943E000C943E0044
S11300400C943E000C943E000C943E000C943E0034
S11300500C943E000C943E000C943E000C943E0024
S11300600C943E000C943E0011241FBECFEFD8E048
S1130070DEBFCDBF0E9440000C945F000C940000D2
S1130080239AE0EBF0E08081836080838081806844
S11300908083E1EBF0E0808184608083E3EBF0E037
S11300A080E090E08083AFE3BCE91197F1F700C0F2
S11300B0000001968115B1E09B0791F3F3CFF8940A
S10500C0FFCF6C
S9030000FC
